{
  "contractName": "SingleAssetBuyer",
  "abi": [
    {
      "inputs": [
        {
          "internalType": "address",
          "name": "exchanger",
          "type": "address"
        }
      ],
      "stateMutability": "nonpayable",
      "type": "constructor"
    },
    {
      "anonymous": false,
      "inputs": [
        {
          "indexed": true,
          "internalType": "address",
          "name": "previousOwner",
          "type": "address"
        },
        {
          "indexed": true,
          "internalType": "address",
          "name": "newOwner",
          "type": "address"
        }
      ],
      "name": "OwnershipTransferred",
      "type": "event"
    },
    {
      "inputs": [],
      "name": "BONE",
      "outputs": [
        {
          "internalType": "uint256",
          "name": "",
          "type": "uint256"
        }
      ],
      "stateMutability": "view",
      "type": "function",
      "constant": true
    },
    {
      "inputs": [],
      "name": "BPOW_PRECISION",
      "outputs": [
        {
          "internalType": "uint256",
          "name": "",
          "type": "uint256"
        }
      ],
      "stateMutability": "view",
      "type": "function",
      "constant": true
    },
    {
      "inputs": [],
      "name": "EXIT_FEE",
      "outputs": [
        {
          "internalType": "uint256",
          "name": "",
          "type": "uint256"
        }
      ],
      "stateMutability": "view",
      "type": "function",
      "constant": true
    },
    {
      "inputs": [],
      "name": "INIT_POOL_SUPPLY",
      "outputs": [
        {
          "internalType": "uint256",
          "name": "",
          "type": "uint256"
        }
      ],
      "stateMutability": "view",
      "type": "function",
      "constant": true
    },
    {
      "inputs": [],
      "name": "MAX_BOUND_TOKENS",
      "outputs": [
        {
          "internalType": "uint256",
          "name": "",
          "type": "uint256"
        }
      ],
      "stateMutability": "view",
      "type": "function",
      "constant": true
    },
    {
      "inputs": [],
      "name": "MAX_BPOW_BASE",
      "outputs": [
        {
          "internalType": "uint256",
          "name": "",
          "type": "uint256"
        }
      ],
      "stateMutability": "view",
      "type": "function",
      "constant": true
    },
    {
      "inputs": [],
      "name": "MAX_FEE",
      "outputs": [
        {
          "internalType": "uint256",
          "name": "",
          "type": "uint256"
        }
      ],
      "stateMutability": "view",
      "type": "function",
      "constant": true
    },
    {
      "inputs": [],
      "name": "MAX_IN_RATIO",
      "outputs": [
        {
          "internalType": "uint256",
          "name": "",
          "type": "uint256"
        }
      ],
      "stateMutability": "view",
      "type": "function",
      "constant": true
    },
    {
      "inputs": [],
      "name": "MAX_OUT_RATIO",
      "outputs": [
        {
          "internalType": "uint256",
          "name": "",
          "type": "uint256"
        }
      ],
      "stateMutability": "view",
      "type": "function",
      "constant": true
    },
    {
      "inputs": [],
      "name": "MAX_TOTAL_WEIGHT",
      "outputs": [
        {
          "internalType": "uint256",
          "name": "",
          "type": "uint256"
        }
      ],
      "stateMutability": "view",
      "type": "function",
      "constant": true
    },
    {
      "inputs": [],
      "name": "MAX_WEIGHT",
      "outputs": [
        {
          "internalType": "uint256",
          "name": "",
          "type": "uint256"
        }
      ],
      "stateMutability": "view",
      "type": "function",
      "constant": true
    },
    {
      "inputs": [],
      "name": "MIN_BALANCE",
      "outputs": [
        {
          "internalType": "uint256",
          "name": "",
          "type": "uint256"
        }
      ],
      "stateMutability": "view",
      "type": "function",
      "constant": true
    },
    {
      "inputs": [],
      "name": "MIN_BOUND_TOKENS",
      "outputs": [
        {
          "internalType": "uint256",
          "name": "",
          "type": "uint256"
        }
      ],
      "stateMutability": "view",
      "type": "function",
      "constant": true
    },
    {
      "inputs": [],
      "name": "MIN_BPOW_BASE",
      "outputs": [
        {
          "internalType": "uint256",
          "name": "",
          "type": "uint256"
        }
      ],
      "stateMutability": "view",
      "type": "function",
      "constant": true
    },
    {
      "inputs": [],
      "name": "MIN_FEE",
      "outputs": [
        {
          "internalType": "uint256",
          "name": "",
          "type": "uint256"
        }
      ],
      "stateMutability": "view",
      "type": "function",
      "constant": true
    },
    {
      "inputs": [],
      "name": "MIN_WEIGHT",
      "outputs": [
        {
          "internalType": "uint256",
          "name": "",
          "type": "uint256"
        }
      ],
      "stateMutability": "view",
      "type": "function",
      "constant": true
    },
    {
      "inputs": [],
      "name": "getColor",
      "outputs": [
        {
          "internalType": "bytes32",
          "name": "",
          "type": "bytes32"
        }
      ],
      "stateMutability": "view",
      "type": "function",
      "constant": true
    },
    {
      "inputs": [],
      "name": "owner",
      "outputs": [
        {
          "internalType": "address",
          "name": "",
          "type": "address"
        }
      ],
      "stateMutability": "view",
      "type": "function",
      "constant": true
    },
    {
      "inputs": [],
      "name": "renounceOwnership",
      "outputs": [],
      "stateMutability": "nonpayable",
      "type": "function"
    },
    {
      "inputs": [
        {
          "internalType": "address",
          "name": "newOwner",
          "type": "address"
        }
      ],
      "name": "transferOwnership",
      "outputs": [],
      "stateMutability": "nonpayable",
      "type": "function"
    },
    {
      "inputs": [
        {
          "internalType": "address",
          "name": "pool",
          "type": "address"
        },
        {
          "internalType": "bool",
          "name": "isSmartPool",
          "type": "bool"
        }
      ],
      "name": "chooseUnderlyingToken",
      "outputs": [
        {
          "internalType": "address",
          "name": "",
          "type": "address"
        }
      ],
      "stateMutability": "view",
      "type": "function",
      "constant": true
    },
    {
      "inputs": [
        {
          "internalType": "address",
          "name": "pool",
          "type": "address"
        },
        {
          "internalType": "bool",
          "name": "isSmartPool",
          "type": "bool"
        },
        {
          "internalType": "address",
          "name": "underlyingToken",
          "type": "address"
        },
        {
          "internalType": "uint256",
          "name": "weiAmountIn",
          "type": "uint256"
        }
      ],
      "name": "calcMinPoolAmountOut",
      "outputs": [
        {
          "internalType": "uint256",
          "name": "",
          "type": "uint256"
        }
      ],
      "stateMutability": "view",
      "type": "function",
      "constant": true
    },
    {
      "inputs": [
        {
          "internalType": "address",
          "name": "pool",
          "type": "address"
        },
        {
          "internalType": "address",
          "name": "underlyingToken",
          "type": "address"
        },
        {
          "internalType": "uint256",
          "name": "minPoolAmountOut",
          "type": "uint256"
        },
        {
          "internalType": "uint256",
          "name": "deadline",
          "type": "uint256"
        }
      ],
      "name": "joinPool",
      "outputs": [],
      "stateMutability": "payable",
      "type": "function",
      "payable": true
    }
  ],
  "bytecode": "0x608060405234801561001057600080fd5b5060405162001b6e38038062001b6e8339818101604052602081101561003557600080fd5b50516000610041610168565b600080546001600160a01b0319166001600160a01b0383169081178255604051929350917f8be0079c531659141344cd1fd0a4f28419497f9722a3daafe3b4186f6b6457e0908290a350600180556001600160a01b0381166100a257600080fd5b600380546001600160a01b0319166001600160a01b038381169190911791829055604080517fad5c46480000000000000000000000000000000000000000000000000000000081529051929091169163ad5c464891600480820192602092909190829003018186803b15801561011757600080fd5b505afa15801561012b573d6000803e3d6000fd5b505050506040513d602081101561014157600080fd5b5051600280546001600160a01b0319166001600160a01b039092169190911790555061016c565b3390565b6119f2806200017c6000396000f3fe6080604052600436106101405760003560e01c8063992e2a92116100b6578063bc694ea21161006f578063bc694ea21461035b578063c36596a6146101d8578063c6580d1214610370578063e4a28a5214610145578063ec09302114610385578063f2fde38b1461039a57610140565b8063992e2a92146102dd5780639a86139b146102f2578063b0e0d13614610307578063b7b800a41461031c578063ba019dab14610331578063bc063e1a1461034657610140565b8063656a8e9411610108578063656a8e941461022b578063715018a61461027457806376c7a3c714610289578063867378c51461029e5780638da5cb5b146102b35780639381cd2b146102c857610140565b806309a3bbe41461014557806314ac26c01461016c578063189d00ca146101c3578063218b5382146101d857806336031cc1146101ed575b600080fd5b34801561015157600080fd5b5061015a6103cd565b60408051918252519081900360200190f35b34801561017857600080fd5b506101a76004803603604081101561018f57600080fd5b506001600160a01b03813516906020013515156103da565b604080516001600160a01b039092168252519081900360200190f35b3480156101cf57600080fd5b5061015a6106c5565b3480156101e457600080fd5b5061015a6106d9565b6102296004803603608081101561020357600080fd5b506001600160a01b038135811691602081013590911690604081013590606001356106e5565b005b34801561023757600080fd5b5061015a6004803603608081101561024e57600080fd5b506001600160a01b03813581169160208101351515916040820135169060600135610b94565b34801561028057600080fd5b50610229610de8565b34801561029557600080fd5b5061015a610ea6565b3480156102aa57600080fd5b5061015a610eb8565b3480156102bf57600080fd5b506101a7610ecc565b3480156102d457600080fd5b5061015a610edb565b3480156102e957600080fd5b5061015a610ee8565b3480156102fe57600080fd5b5061015a610ef4565b34801561031357600080fd5b5061015a610f01565b34801561032857600080fd5b5061015a610f07565b34801561033d57600080fd5b5061015a610f0c565b34801561035257600080fd5b5061015a610f11565b34801561036757600080fd5b5061015a610f21565b34801561037c57600080fd5b5061015a610f2d565b34801561039157600080fd5b5061015a610f32565b3480156103a657600080fd5b50610229600480360360208110156103bd57600080fd5b50356001600160a01b0316610f42565b6802b5e3af16b188000081565b600060606103e88484611056565b905060008060005b83518110156106ba5760025484516001600160a01b039091169085908390811061041657fe5b60200260200101516001600160a01b03161415610432576106b2565b6040805160028082526060808301845292602083019080368337505060025482519293506001600160a01b03169183915060009061046c57fe5b60200260200101906001600160a01b031690816001600160a01b03168152505084828151811061049857fe5b6020026020010151816001815181106104ad57fe5b6001600160a01b039283166020918202929092018101919091526003546040805163d06ca61f60e01b815260016004820181815260248301938452875160448401528751606097959095169563d06ca61f95929489949293909260640191858101910280838360005b8381101561052e578181015183820152602001610516565b50505050905001935050505060006040518083038186803b15801561055257600080fd5b505afa158015610566573d6000803e3d6000fd5b505050506040513d6000823e601f3d908101601f19168201604052602081101561058f57600080fd5b8101908080516040519392919084600160201b8211156105ae57600080fd5b9083019060208201858111156105c357600080fd5b82518660208202830111600160201b821117156105df57600080fd5b82525081516020918201928201910280838360005b8381101561060c5781810151838201526020016105f4565b50505050905001604052505050905060006106508a8a89878151811061062e57fe5b60200260200101518560018151811061064357fe5b6020026020010151611169565b90506001600160a01b0386161580610666575084155b1561068c5786848151811061067757fe5b602002602001015195508094505050506106b2565b848111156106ae578684815181106106a057fe5b602002602001015195508094505b5050505b6001016103f0565b509095945050505050565b6402540be400670de0b6b3a76400005b0481565b670de0b6b3a764000081565b6002600154141561073d576040805162461bcd60e51b815260206004820152601f60248201527f5265656e7472616e637947756172643a207265656e7472616e742063616c6c00604482015290519081900360640190fd5b60026001556001600160a01b038416610792576040805162461bcd60e51b815260206004820152601260248201527157524f4e475f504f4f4c5f4144445245535360701b604482015290519081900360640190fd5b600034116107d9576040805162461bcd60e51b815260206004820152600f60248201526e57524f4e475f4d53475f56414c554560881b604482015290519081900360640190fd5b6002546001600160a01b0384811691161415610835576040805162461bcd60e51b81526020600482015260166024820152752ba927a723afaaa72222a9262ca4a723afaa27a5a2a760511b604482015290519081900360640190fd5b6040805160028082526060808301845292602083019080368337505060025482519293506001600160a01b03169183915060009061086f57fe5b60200260200101906001600160a01b031690816001600160a01b031681525050838160018151811061089d57fe5b6001600160a01b03928316602091820292909201810191909152600354604051637ff36ab560e01b81526001600482018181523060448401819052606484018990526080602485019081528851608486015288516060989690961696637ff36ab59634968b958d949093909260a490920191878201910280838360005b8381101561093257818101518382015260200161091a565b50505050905001955050505050506000604051808303818588803b15801561095957600080fd5b505af115801561096d573d6000803e3d6000fd5b50505050506040513d6000823e601f3d908101601f19168201604052602081101561099757600080fd5b8101908080516040519392919084600160201b8211156109b657600080fd5b9083019060208201858111156109cb57600080fd5b82518660208202830111600160201b821117156109e757600080fd5b82525081516020918201928201910280838360005b83811015610a145781810151838201526020016109fc565b505050509050016040525050509050610a558682600181518110610a3457fe5b6020026020010151876001600160a01b03166114529092919063ffffffff16565b6000866001600160a01b0316635db342778784600181518110610a7457fe5b6020026020010151886040518463ffffffff1660e01b815260040180846001600160a01b031681526020018381526020018281526020019350505050602060405180830381600087803b158015610aca57600080fd5b505af1158015610ade573d6000803e3d6000fd5b505050506040513d6020811015610af457600080fd5b5051905084811015610b45576040805162461bcd60e51b815260206004820152601560248201527415d493d391d7d413d3d317d05353d5539517d3d555605a1b604482015290519081900360640190fd5b610b596001600160a01b0388163383611543565b6040513390303180156108fc02916000818181858888f19350505050158015610b86573d6000803e3d6000fd5b505060018055505050505050565b6002546000906001600160a01b0384811691161415610bf3576040805162461bcd60e51b81526020600482015260166024820152752ba927a723afaaa72222a9262ca4a723afaa27a5a2a760511b604482015290519081900360640190fd5b6040805160028082526060808301845292602083019080368337505060025482519293506001600160a01b031691839150600090610c2d57fe5b60200260200101906001600160a01b031690816001600160a01b0316815250508381600181518110610c5b57fe5b6001600160a01b039283166020918202929092018101919091526003546040805163d06ca61f60e01b81526004810188815260248201928352865160448301528651606096949094169463d06ca61f948a9489949092606490910191858201910280838360005b83811015610cda578181015183820152602001610cc2565b50505050905001935050505060006040518083038186803b158015610cfe57600080fd5b505afa158015610d12573d6000803e3d6000fd5b505050506040513d6000823e601f3d908101601f191682016040526020811015610d3b57600080fd5b8101908080516040519392919084600160201b821115610d5a57600080fd5b908301906020820185811115610d6f57600080fd5b82518660208202830111600160201b82111715610d8b57600080fd5b82525081516020918201928201910280838360005b83811015610db8578181015183820152602001610da0565b5050505090500160405250505090506000610ddc8888888560018151811061064357fe5b98975050505050505050565b610df061159a565b6001600160a01b0316610e01610ecc565b6001600160a01b031614610e5c576040805162461bcd60e51b815260206004820181905260248201527f4f776e61626c653a2063616c6c6572206973206e6f7420746865206f776e6572604482015290519081900360640190fd5b600080546040516001600160a01b03909116907f8be0079c531659141344cd1fd0a4f28419497f9722a3daafe3b4186f6b6457e0908390a3600080546001600160a01b0319169055565b620f4240670de0b6b3a76400006106d5565b64e8d4a51000670de0b6b3a76400006106d5565b6000546001600160a01b031690565b68056bc75e2d6310000081565b6704a03ce68d21555681565b6542524f4e5a4560d01b90565b61010081565b600281565b600181565b600a670de0b6b3a76400006106d5565b671bc16d674ec7ffff81565b600081565b6002670de0b6b3a76400006106d5565b610f4a61159a565b6001600160a01b0316610f5b610ecc565b6001600160a01b031614610fb6576040805162461bcd60e51b815260206004820181905260248201527f4f776e61626c653a2063616c6c6572206973206e6f7420746865206f776e6572604482015290519081900360640190fd5b6001600160a01b038116610ffb5760405162461bcd60e51b81526004018080602001828103825260268152602001806119476026913960400191505060405180910390fd5b600080546040516001600160a01b03808516939216917f8be0079c531659141344cd1fd0a4f28419497f9722a3daafe3b4186f6b6457e091a3600080546001600160a01b0319166001600160a01b0392909216919091179055565b6060611062838361159e565b6001600160a01b031663cc77828d6040518163ffffffff1660e01b815260040160006040518083038186803b15801561109a57600080fd5b505afa1580156110ae573d6000803e3d6000fd5b505050506040513d6000823e601f3d908101601f1916820160405260208110156110d757600080fd5b8101908080516040519392919084600160201b8211156110f657600080fd5b90830190602082018581111561110b57600080fd5b82518660208202830111600160201b8211171561112757600080fd5b82525081516020918201928201910280838360005b8381101561115457818101518382015260200161113c565b50505050905001604052505050905092915050565b600080611176868661159e565b9050806001600160a01b0316638656b653826001600160a01b031663f8b2cb4f876040518263ffffffff1660e01b815260040180826001600160a01b0316815260200191505060206040518083038186803b1580156111d457600080fd5b505afa1580156111e8573d6000803e3d6000fd5b505050506040513d60208110156111fe57600080fd5b505160408051634a46c67360e11b81526001600160a01b03898116600483015291519186169163948d8ce691602480820192602092909190829003018186803b15801561124a57600080fd5b505afa15801561125e573d6000803e3d6000fd5b505050506040513d602081101561127457600080fd5b5051604080516318160ddd60e01b815290516001600160a01b038c16916318160ddd916004808301926020929190829003018186803b1580156112b657600080fd5b505afa1580156112ca573d6000803e3d6000fd5b505050506040513d60208110156112e057600080fd5b50516040805163936c347760e01b815290516001600160a01b0388169163936c3477916004808301926020929190829003018186803b15801561132257600080fd5b505afa158015611336573d6000803e3d6000fd5b505050506040513d602081101561134c57600080fd5b505160408051631a995bed60e31b815290518a916001600160a01b038a169163d4cadf6891600480820192602092909190829003018186803b15801561139157600080fd5b505afa1580156113a5573d6000803e3d6000fd5b505050506040513d60208110156113bb57600080fd5b5051604080516001600160e01b031960e08a901b1681526004810197909752602487019590955260448601939093526064850191909152608484015260a48301525160c4808301926020929190829003018186803b15801561141c57600080fd5b505afa158015611430573d6000803e3d6000fd5b505050506040513d602081101561144657600080fd5b50519695505050505050565b60006114e882856001600160a01b031663dd62ed3e30876040518363ffffffff1660e01b815260040180836001600160a01b03168152602001826001600160a01b031681526020019250505060206040518083038186803b1580156114b657600080fd5b505afa1580156114ca573d6000803e3d6000fd5b505050506040513d60208110156114e057600080fd5b50519061161d565b604080516001600160a01b038616602482015260448082018490528251808303909101815260649091019091526020810180516001600160e01b031663095ea7b360e01b17905290915061153d908590611677565b50505050565b604080516001600160a01b038416602482015260448082018490528251808303909101815260649091019091526020810180516001600160e01b031663a9059cbb60e01b179052611595908490611677565b505050565b3390565b600080821561161357836001600160a01b031663b64ef17b6040518163ffffffff1660e01b815260040160206040518083038186803b1580156115e057600080fd5b505afa1580156115f4573d6000803e3d6000fd5b505050506040513d602081101561160a57600080fd5b50519050611616565b50825b9392505050565b600082820183811015611616576040805162461bcd60e51b815260206004820152601b60248201527f536166654d6174683a206164646974696f6e206f766572666c6f770000000000604482015290519081900360640190fd5b60606116cc826040518060400160405280602081526020017f5361666545524332303a206c6f772d6c6576656c2063616c6c206661696c6564815250856001600160a01b03166117289092919063ffffffff16565b805190915015611595578080602001905160208110156116eb57600080fd5b50516115955760405162461bcd60e51b815260040180806020018281038252602a815260200180611993602a913960400191505060405180910390fd5b6060611737848460008561173f565b949350505050565b606030318311156117815760405162461bcd60e51b815260040180806020018281038252602681526020018061196d6026913960400191505060405180910390fd5b61178a8561189c565b6117db576040805162461bcd60e51b815260206004820152601d60248201527f416464726573733a2063616c6c20746f206e6f6e2d636f6e7472616374000000604482015290519081900360640190fd5b60006060866001600160a01b031685876040518082805190602001908083835b6020831061181a5780518252601f1990920191602091820191016117fb565b6001836020036101000a03801982511681845116808217855250505050505090500191505060006040518083038185875af1925050503d806000811461187c576040519150601f19603f3d011682016040523d82523d6000602084013e611881565b606091505b50915091506118918282866118a2565b979650505050505050565b3b151590565b606083156118b1575081611616565b8251156118c15782518084602001fd5b8160405162461bcd60e51b81526004018080602001828103825283818151815260200191508051906020019080838360005b8381101561190b5781810151838201526020016118f3565b50505050905090810190601f1680156119385780820380516001836020036101000a031916815260200191505b509250505060405180910390fdfe4f776e61626c653a206e6577206f776e657220697320746865207a65726f2061646472657373416464726573733a20696e73756666696369656e742062616c616e636520666f722063616c6c5361666545524332303a204552433230206f7065726174696f6e20646964206e6f742073756363656564a26469706673582212202f364165a7729f469e9f8e4b238e4cf093d54e18abcdb8a4db48d32f97fcfa5964736f6c634300060c0033",
  "immutableReferences": {},
  "source": "// This program is free software: you can redistribute it and/or modify\n// it under the terms of the GNU General Public License as published by\n// the Free Software Foundation, either version 3 of the License, or\n// (at your option) any later version.\n\n// This program is distributed in the hope that it will be useful,\n// but WITHOUT ANY WARRANTY; without even the implied warranty of\n// MERCHANTABILITY or FITNESS FOR A PARTICULAR PURPOSE.  See the\n// GNU General Public License for more details.\n\n// You should have received a copy of the GNU General Public License\n// along with this program.  If not, see <http://www.gnu.org/licenses/>.\n\npragma solidity 0.6.12;\n\n\nimport \"@openzeppelin/contracts/access/Ownable.sol\";\nimport \"@openzeppelin/contracts/math/SafeMath.sol\";\nimport \"@openzeppelin/contracts/token/ERC20/SafeERC20.sol\";\nimport \"@openzeppelin/contracts/utils/ReentrancyGuard.sol\";\n\nimport \"./external/BPool.sol\";\nimport \"./external/interfaces/IPancakeRouter01.sol\";\nimport \"./SharedPoolBuyer.sol\";\n\ncontract SingleAssetBuyer is Ownable, ReentrancyGuard, SharedPoolBuyer, BConst {\n    using SafeMath for uint;\n    using SafeERC20 for IERC20;\n\n    address private _weth;\n    IPancakeRouter01 private _exchanger;\n\n    constructor(address exchanger) public {\n        require(exchanger != address(0));\n\n        _exchanger = IPancakeRouter01(exchanger);\n        _weth = _exchanger.WETH();\n    }\n\n    function chooseUnderlyingToken(address pool, bool isSmartPool)\n        external\n        view\n        returns (address)\n    {\n        address[] memory poolTokens = getTokensFromPool(pool, isSmartPool);\n        address resultToken;\n        uint resultPoolAmountOut;\n\n        for (uint i = 0; i < poolTokens.length; i++) {\n            if (poolTokens[i] == _weth) {\n                continue;\n            }\n\n            address[] memory path = new address[](2);\n            path[0] = _weth;\n            path[1] = poolTokens[i];\n\n            uint[] memory amounts = _exchanger.getAmountsOut(1, path);\n            uint poolAmountOut = calcPoolOutGivenSingleIn(\n                pool, isSmartPool, poolTokens[i], amounts[1]\n            );\n\n            if (resultToken == address(0) || resultPoolAmountOut == 0) {\n                resultToken = poolTokens[i];\n                resultPoolAmountOut = poolAmountOut;\n                continue;\n            }\n\n            if (poolAmountOut > resultPoolAmountOut) {\n                resultToken = poolTokens[i];\n                resultPoolAmountOut = poolAmountOut;\n            }\n        }\n\n        return resultToken;\n    }\n\n    function calcMinPoolAmountOut(\n        address pool,\n        bool isSmartPool,\n        address underlyingToken,\n        uint weiAmountIn\n    )\n        external\n        view\n        returns (uint)\n    {\n        require(underlyingToken != _weth, \"WRONG_UNDERLYING_TOKEN\");\n\n        address[] memory path = new address[](2);\n        path[0] = _weth;\n        path[1] = underlyingToken;\n\n        uint[] memory amounts = _exchanger.getAmountsOut(weiAmountIn, path);\n        uint poolAmountOut = calcPoolOutGivenSingleIn(\n            pool, isSmartPool, underlyingToken, amounts[1]\n        );\n\n        return poolAmountOut;\n    }\n\n    function joinPool(\n        address pool,\n        address underlyingToken,\n        uint minPoolAmountOut,\n        uint deadline\n    )\n        external\n        payable\n        nonReentrant\n    {\n        require(pool != address(0), \"WRONG_POOL_ADDRESS\");\n        require(msg.value > 0, \"WRONG_MSG_VALUE\");\n        require(underlyingToken != _weth, \"WRONG_UNDERLYING_TOKEN\");\n\n        address[] memory path = new address[](2);\n        path[0] = _weth;\n        path[1] = underlyingToken;\n\n        uint[] memory amounts = _exchanger.swapExactETHForTokens{value: msg.value}(\n            1,\n            path,\n            address(this),\n            deadline\n        );\n\n        IERC20(underlyingToken).safeIncreaseAllowance(pool, amounts[1]);\n        uint poolAmountOut = BPool(pool).joinswapExternAmountIn(\n            underlyingToken, amounts[1], minPoolAmountOut\n        );\n        require(poolAmountOut >= minPoolAmountOut, \"WRONG_POOL_AMOUNT_OUT\");\n        IERC20(pool).safeTransfer(msg.sender, poolAmountOut);\n        msg.sender.transfer(address(this).balance);\n    }\n}\n",
  "sourcePath": "/home/rremizov/projects/multitoken/buyer-contract/contracts/SingleAssetBuyer.sol",
  "compiler": {
    "name": "solc",
    "version": "0.6.12+commit.27d51765.Emscripten.clang"
  },
  "schemaVersion": "3.4.1",
  "updatedAt": "2021-05-26T09:46:45.735Z",
  "networkType": "ethereum",
  "devdoc": {
    "kind": "dev",
    "methods": {
      "owner()": {
        "details": "Returns the address of the current owner."
      },
      "renounceOwnership()": {
        "details": "Leaves the contract without owner. It will not be possible to call `onlyOwner` functions anymore. Can only be called by the current owner. NOTE: Renouncing ownership will leave the contract without an owner, thereby removing any functionality that is only available to the owner."
      },
      "transferOwnership(address)": {
        "details": "Transfers ownership of the contract to a new account (`newOwner`). Can only be called by the current owner."
      }
    },
    "version": 1
  },
  "userdoc": {
    "kind": "user",
    "methods": {},
    "version": 1
  }
}