{
  "contractName": "SingleAssetBuyer",
  "abi": [
    {
      "inputs": [
        {
          "internalType": "address",
          "name": "exchanger",
          "type": "address"
        }
      ],
      "stateMutability": "nonpayable",
      "type": "constructor"
    },
    {
      "anonymous": false,
      "inputs": [
        {
          "indexed": true,
          "internalType": "address",
          "name": "previousOwner",
          "type": "address"
        },
        {
          "indexed": true,
          "internalType": "address",
          "name": "newOwner",
          "type": "address"
        }
      ],
      "name": "OwnershipTransferred",
      "type": "event"
    },
    {
      "inputs": [],
      "name": "BONE",
      "outputs": [
        {
          "internalType": "uint256",
          "name": "",
          "type": "uint256"
        }
      ],
      "stateMutability": "view",
      "type": "function"
    },
    {
      "inputs": [],
      "name": "BPOW_PRECISION",
      "outputs": [
        {
          "internalType": "uint256",
          "name": "",
          "type": "uint256"
        }
      ],
      "stateMutability": "view",
      "type": "function"
    },
    {
      "inputs": [],
      "name": "EXIT_FEE",
      "outputs": [
        {
          "internalType": "uint256",
          "name": "",
          "type": "uint256"
        }
      ],
      "stateMutability": "view",
      "type": "function"
    },
    {
      "inputs": [],
      "name": "INIT_POOL_SUPPLY",
      "outputs": [
        {
          "internalType": "uint256",
          "name": "",
          "type": "uint256"
        }
      ],
      "stateMutability": "view",
      "type": "function"
    },
    {
      "inputs": [],
      "name": "MAX_BOUND_TOKENS",
      "outputs": [
        {
          "internalType": "uint256",
          "name": "",
          "type": "uint256"
        }
      ],
      "stateMutability": "view",
      "type": "function"
    },
    {
      "inputs": [],
      "name": "MAX_BPOW_BASE",
      "outputs": [
        {
          "internalType": "uint256",
          "name": "",
          "type": "uint256"
        }
      ],
      "stateMutability": "view",
      "type": "function"
    },
    {
      "inputs": [],
      "name": "MAX_FEE",
      "outputs": [
        {
          "internalType": "uint256",
          "name": "",
          "type": "uint256"
        }
      ],
      "stateMutability": "view",
      "type": "function"
    },
    {
      "inputs": [],
      "name": "MAX_IN_RATIO",
      "outputs": [
        {
          "internalType": "uint256",
          "name": "",
          "type": "uint256"
        }
      ],
      "stateMutability": "view",
      "type": "function"
    },
    {
      "inputs": [],
      "name": "MAX_OUT_RATIO",
      "outputs": [
        {
          "internalType": "uint256",
          "name": "",
          "type": "uint256"
        }
      ],
      "stateMutability": "view",
      "type": "function"
    },
    {
      "inputs": [],
      "name": "MAX_TOTAL_WEIGHT",
      "outputs": [
        {
          "internalType": "uint256",
          "name": "",
          "type": "uint256"
        }
      ],
      "stateMutability": "view",
      "type": "function"
    },
    {
      "inputs": [],
      "name": "MAX_WEIGHT",
      "outputs": [
        {
          "internalType": "uint256",
          "name": "",
          "type": "uint256"
        }
      ],
      "stateMutability": "view",
      "type": "function"
    },
    {
      "inputs": [],
      "name": "MIN_BALANCE",
      "outputs": [
        {
          "internalType": "uint256",
          "name": "",
          "type": "uint256"
        }
      ],
      "stateMutability": "view",
      "type": "function"
    },
    {
      "inputs": [],
      "name": "MIN_BOUND_TOKENS",
      "outputs": [
        {
          "internalType": "uint256",
          "name": "",
          "type": "uint256"
        }
      ],
      "stateMutability": "view",
      "type": "function"
    },
    {
      "inputs": [],
      "name": "MIN_BPOW_BASE",
      "outputs": [
        {
          "internalType": "uint256",
          "name": "",
          "type": "uint256"
        }
      ],
      "stateMutability": "view",
      "type": "function"
    },
    {
      "inputs": [],
      "name": "MIN_FEE",
      "outputs": [
        {
          "internalType": "uint256",
          "name": "",
          "type": "uint256"
        }
      ],
      "stateMutability": "view",
      "type": "function"
    },
    {
      "inputs": [],
      "name": "MIN_WEIGHT",
      "outputs": [
        {
          "internalType": "uint256",
          "name": "",
          "type": "uint256"
        }
      ],
      "stateMutability": "view",
      "type": "function"
    },
    {
      "inputs": [],
      "name": "getColor",
      "outputs": [
        {
          "internalType": "bytes32",
          "name": "",
          "type": "bytes32"
        }
      ],
      "stateMutability": "view",
      "type": "function"
    },
    {
      "inputs": [],
      "name": "owner",
      "outputs": [
        {
          "internalType": "address",
          "name": "",
          "type": "address"
        }
      ],
      "stateMutability": "view",
      "type": "function"
    },
    {
      "inputs": [],
      "name": "renounceOwnership",
      "outputs": [],
      "stateMutability": "nonpayable",
      "type": "function"
    },
    {
      "inputs": [
        {
          "internalType": "address",
          "name": "newOwner",
          "type": "address"
        }
      ],
      "name": "transferOwnership",
      "outputs": [],
      "stateMutability": "nonpayable",
      "type": "function"
    },
    {
      "inputs": [
        {
          "internalType": "address",
          "name": "pool",
          "type": "address"
        },
        {
          "internalType": "bool",
          "name": "isSmartPool",
          "type": "bool"
        }
      ],
      "name": "chooseUnderlyingToken",
      "outputs": [
        {
          "internalType": "address",
          "name": "",
          "type": "address"
        }
      ],
      "stateMutability": "view",
      "type": "function"
    },
    {
      "inputs": [
        {
          "internalType": "address",
          "name": "pool",
          "type": "address"
        },
        {
          "internalType": "bool",
          "name": "isSmartPool",
          "type": "bool"
        },
        {
          "internalType": "address",
          "name": "underlyingToken",
          "type": "address"
        },
        {
          "internalType": "uint256",
          "name": "weiAmountIn",
          "type": "uint256"
        }
      ],
      "name": "calcMinPoolAmountOut",
      "outputs": [
        {
          "internalType": "uint256",
          "name": "",
          "type": "uint256"
        }
      ],
      "stateMutability": "view",
      "type": "function"
    },
    {
      "inputs": [
        {
          "internalType": "address",
          "name": "pool",
          "type": "address"
        },
        {
          "internalType": "bool",
          "name": "",
          "type": "bool"
        },
        {
          "internalType": "address",
          "name": "underlyingToken",
          "type": "address"
        },
        {
          "internalType": "uint256",
          "name": "minPoolAmountOut",
          "type": "uint256"
        },
        {
          "internalType": "uint256",
          "name": "deadline",
          "type": "uint256"
        }
      ],
      "name": "joinPool",
      "outputs": [],
      "stateMutability": "payable",
      "type": "function"
    }
  ],
  "bytecode": "0x608060405234801561001057600080fd5b5060405162001b7538038062001b758339818101604052602081101561003557600080fd5b50516000610041610168565b600080546001600160a01b0319166001600160a01b0383169081178255604051929350917f8be0079c531659141344cd1fd0a4f28419497f9722a3daafe3b4186f6b6457e0908290a350600180556001600160a01b0381166100a257600080fd5b600380546001600160a01b0319166001600160a01b038381169190911791829055604080517fad5c46480000000000000000000000000000000000000000000000000000000081529051929091169163ad5c464891600480820192602092909190829003018186803b15801561011757600080fd5b505afa15801561012b573d6000803e3d6000fd5b505050506040513d602081101561014157600080fd5b5051600280546001600160a01b0319166001600160a01b039092169190911790555061016c565b3390565b6119f9806200017c6000396000f3fe6080604052600436106101405760003560e01c80639a86139b116100b6578063c36596a61161006f578063c36596a6146101d8578063c6220cfa14610334578063c6580d1214610376578063e4a28a5214610145578063ec0930211461038b578063f2fde38b146103a057610140565b80639a86139b146102b6578063b0e0d136146102cb578063b7b800a4146102e0578063ba019dab146102f5578063bc063e1a1461030a578063bc694ea21461031f57610140565b8063715018a611610108578063715018a61461023657806376c7a3c71461024d578063867378c5146102625780638da5cb5b146102775780639381cd2b1461028c578063992e2a92146102a157610140565b806309a3bbe41461014557806314ac26c01461016c578063189d00ca146101c3578063218b5382146101d8578063656a8e94146101ed575b600080fd5b34801561015157600080fd5b5061015a6103d3565b60408051918252519081900360200190f35b34801561017857600080fd5b506101a76004803603604081101561018f57600080fd5b506001600160a01b03813516906020013515156103e0565b604080516001600160a01b039092168252519081900360200190f35b3480156101cf57600080fd5b5061015a6106cb565b3480156101e457600080fd5b5061015a6106df565b3480156101f957600080fd5b5061015a6004803603608081101561021057600080fd5b506001600160a01b038135811691602081013515159160408201351690606001356106eb565b34801561024257600080fd5b5061024b61093f565b005b34801561025957600080fd5b5061015a6109fd565b34801561026e57600080fd5b5061015a610a0f565b34801561028357600080fd5b506101a7610a23565b34801561029857600080fd5b5061015a610a32565b3480156102ad57600080fd5b5061015a610a3f565b3480156102c257600080fd5b5061015a610a4b565b3480156102d757600080fd5b5061015a610a58565b3480156102ec57600080fd5b5061015a610a5e565b34801561030157600080fd5b5061015a610a63565b34801561031657600080fd5b5061015a610a68565b34801561032b57600080fd5b5061015a610a78565b61024b600480360360a081101561034a57600080fd5b506001600160a01b03813581169160208101351515916040820135169060608101359060800135610a84565b34801561038257600080fd5b5061015a610f34565b34801561039757600080fd5b5061015a610f39565b3480156103ac57600080fd5b5061024b600480360360208110156103c357600080fd5b50356001600160a01b0316610f49565b6802b5e3af16b188000081565b600060606103ee848461105d565b905060008060005b83518110156106c05760025484516001600160a01b039091169085908390811061041c57fe5b60200260200101516001600160a01b03161415610438576106b8565b6040805160028082526060808301845292602083019080368337505060025482519293506001600160a01b03169183915060009061047257fe5b60200260200101906001600160a01b031690816001600160a01b03168152505084828151811061049e57fe5b6020026020010151816001815181106104b357fe5b6001600160a01b039283166020918202929092018101919091526003546040805163d06ca61f60e01b815260016004820181815260248301938452875160448401528751606097959095169563d06ca61f95929489949293909260640191858101910280838360005b8381101561053457818101518382015260200161051c565b50505050905001935050505060006040518083038186803b15801561055857600080fd5b505afa15801561056c573d6000803e3d6000fd5b505050506040513d6000823e601f3d908101601f19168201604052602081101561059557600080fd5b8101908080516040519392919084600160201b8211156105b457600080fd5b9083019060208201858111156105c957600080fd5b82518660208202830111600160201b821117156105e557600080fd5b82525081516020918201928201910280838360005b838110156106125781810151838201526020016105fa565b50505050905001604052505050905060006106568a8a89878151811061063457fe5b60200260200101518560018151811061064957fe5b6020026020010151611170565b90506001600160a01b038616158061066c575084155b156106925786848151811061067d57fe5b602002602001015195508094505050506106b8565b848111156106b4578684815181106106a657fe5b602002602001015195508094505b5050505b6001016103f6565b509095945050505050565b6402540be400670de0b6b3a76400005b0481565b670de0b6b3a764000081565b6002546000906001600160a01b038481169116141561074a576040805162461bcd60e51b81526020600482015260166024820152752ba927a723afaaa72222a9262ca4a723afaa27a5a2a760511b604482015290519081900360640190fd5b6040805160028082526060808301845292602083019080368337505060025482519293506001600160a01b03169183915060009061078457fe5b60200260200101906001600160a01b031690816001600160a01b03168152505083816001815181106107b257fe5b6001600160a01b039283166020918202929092018101919091526003546040805163d06ca61f60e01b81526004810188815260248201928352865160448301528651606096949094169463d06ca61f948a9489949092606490910191858201910280838360005b83811015610831578181015183820152602001610819565b50505050905001935050505060006040518083038186803b15801561085557600080fd5b505afa158015610869573d6000803e3d6000fd5b505050506040513d6000823e601f3d908101601f19168201604052602081101561089257600080fd5b8101908080516040519392919084600160201b8211156108b157600080fd5b9083019060208201858111156108c657600080fd5b82518660208202830111600160201b821117156108e257600080fd5b82525081516020918201928201910280838360005b8381101561090f5781810151838201526020016108f7565b50505050905001604052505050905060006109338888888560018151811061064957fe5b98975050505050505050565b610947611459565b6001600160a01b0316610958610a23565b6001600160a01b0316146109b3576040805162461bcd60e51b815260206004820181905260248201527f4f776e61626c653a2063616c6c6572206973206e6f7420746865206f776e6572604482015290519081900360640190fd5b600080546040516001600160a01b03909116907f8be0079c531659141344cd1fd0a4f28419497f9722a3daafe3b4186f6b6457e0908390a3600080546001600160a01b0319169055565b620f4240670de0b6b3a76400006106db565b64e8d4a51000670de0b6b3a76400006106db565b6000546001600160a01b031690565b68056bc75e2d6310000081565b6704a03ce68d21555681565b6542524f4e5a4560d01b90565b61010081565b600281565b600181565b600a670de0b6b3a76400006106db565b671bc16d674ec7ffff81565b60026001541415610adc576040805162461bcd60e51b815260206004820152601f60248201527f5265656e7472616e637947756172643a207265656e7472616e742063616c6c00604482015290519081900360640190fd5b60026001556001600160a01b038516610b31576040805162461bcd60e51b815260206004820152601260248201527157524f4e475f504f4f4c5f4144445245535360701b604482015290519081900360640190fd5b60003411610b78576040805162461bcd60e51b815260206004820152600f60248201526e57524f4e475f4d53475f56414c554560881b604482015290519081900360640190fd5b6002546001600160a01b0384811691161415610bd4576040805162461bcd60e51b81526020600482015260166024820152752ba927a723afaaa72222a9262ca4a723afaa27a5a2a760511b604482015290519081900360640190fd5b6040805160028082526060808301845292602083019080368337505060025482519293506001600160a01b031691839150600090610c0e57fe5b60200260200101906001600160a01b031690816001600160a01b0316815250508381600181518110610c3c57fe5b6001600160a01b03928316602091820292909201810191909152600354604051637ff36ab560e01b81526001600482018181523060448401819052606484018990526080602485019081528851608486015288516060989690961696637ff36ab59634968b958d949093909260a490920191878201910280838360005b83811015610cd1578181015183820152602001610cb9565b50505050905001955050505050506000604051808303818588803b158015610cf857600080fd5b505af1158015610d0c573d6000803e3d6000fd5b50505050506040513d6000823e601f3d908101601f191682016040526020811015610d3657600080fd5b8101908080516040519392919084600160201b821115610d5557600080fd5b908301906020820185811115610d6a57600080fd5b82518660208202830111600160201b82111715610d8657600080fd5b82525081516020918201928201910280838360005b83811015610db3578181015183820152602001610d9b565b505050509050016040525050509050610df48782600181518110610dd357fe5b6020026020010151876001600160a01b031661145d9092919063ffffffff16565b6000876001600160a01b0316635db342778784600181518110610e1357fe5b6020026020010151886040518463ffffffff1660e01b815260040180846001600160a01b031681526020018381526020018281526020019350505050602060405180830381600087803b158015610e6957600080fd5b505af1158015610e7d573d6000803e3d6000fd5b505050506040513d6020811015610e9357600080fd5b5051905084811015610ee4576040805162461bcd60e51b815260206004820152601560248201527415d493d391d7d413d3d317d05353d5539517d3d555605a1b604482015290519081900360640190fd5b610ef86001600160a01b038916338361154e565b6040513390303180156108fc02916000818181858888f19350505050158015610f25573d6000803e3d6000fd5b50506001805550505050505050565b600081565b6002670de0b6b3a76400006106db565b610f51611459565b6001600160a01b0316610f62610a23565b6001600160a01b031614610fbd576040805162461bcd60e51b815260206004820181905260248201527f4f776e61626c653a2063616c6c6572206973206e6f7420746865206f776e6572604482015290519081900360640190fd5b6001600160a01b0381166110025760405162461bcd60e51b815260040180806020018281038252602681526020018061194e6026913960400191505060405180910390fd5b600080546040516001600160a01b03808516939216917f8be0079c531659141344cd1fd0a4f28419497f9722a3daafe3b4186f6b6457e091a3600080546001600160a01b0319166001600160a01b0392909216919091179055565b606061106983836115a5565b6001600160a01b031663cc77828d6040518163ffffffff1660e01b815260040160006040518083038186803b1580156110a157600080fd5b505afa1580156110b5573d6000803e3d6000fd5b505050506040513d6000823e601f3d908101601f1916820160405260208110156110de57600080fd5b8101908080516040519392919084600160201b8211156110fd57600080fd5b90830190602082018581111561111257600080fd5b82518660208202830111600160201b8211171561112e57600080fd5b82525081516020918201928201910280838360005b8381101561115b578181015183820152602001611143565b50505050905001604052505050905092915050565b60008061117d86866115a5565b9050806001600160a01b0316638656b653826001600160a01b031663f8b2cb4f876040518263ffffffff1660e01b815260040180826001600160a01b0316815260200191505060206040518083038186803b1580156111db57600080fd5b505afa1580156111ef573d6000803e3d6000fd5b505050506040513d602081101561120557600080fd5b505160408051634a46c67360e11b81526001600160a01b03898116600483015291519186169163948d8ce691602480820192602092909190829003018186803b15801561125157600080fd5b505afa158015611265573d6000803e3d6000fd5b505050506040513d602081101561127b57600080fd5b5051604080516318160ddd60e01b815290516001600160a01b038716916318160ddd916004808301926020929190829003018186803b1580156112bd57600080fd5b505afa1580156112d1573d6000803e3d6000fd5b505050506040513d60208110156112e757600080fd5b50516040805163936c347760e01b815290516001600160a01b0388169163936c3477916004808301926020929190829003018186803b15801561132957600080fd5b505afa15801561133d573d6000803e3d6000fd5b505050506040513d602081101561135357600080fd5b505160408051631a995bed60e31b815290518a916001600160a01b038a169163d4cadf6891600480820192602092909190829003018186803b15801561139857600080fd5b505afa1580156113ac573d6000803e3d6000fd5b505050506040513d60208110156113c257600080fd5b5051604080516001600160e01b031960e08a901b1681526004810197909752602487019590955260448601939093526064850191909152608484015260a48301525160c4808301926020929190829003018186803b15801561142357600080fd5b505afa158015611437573d6000803e3d6000fd5b505050506040513d602081101561144d57600080fd5b50519695505050505050565b3390565b60006114f382856001600160a01b031663dd62ed3e30876040518363ffffffff1660e01b815260040180836001600160a01b03168152602001826001600160a01b031681526020019250505060206040518083038186803b1580156114c157600080fd5b505afa1580156114d5573d6000803e3d6000fd5b505050506040513d60208110156114eb57600080fd5b505190611624565b604080516001600160a01b038616602482015260448082018490528251808303909101815260649091019091526020810180516001600160e01b031663095ea7b360e01b17905290915061154890859061167e565b50505050565b604080516001600160a01b038416602482015260448082018490528251808303909101815260649091019091526020810180516001600160e01b031663a9059cbb60e01b1790526115a090849061167e565b505050565b600080821561161a57836001600160a01b031663b64ef17b6040518163ffffffff1660e01b815260040160206040518083038186803b1580156115e757600080fd5b505afa1580156115fb573d6000803e3d6000fd5b505050506040513d602081101561161157600080fd5b5051905061161d565b50825b9392505050565b60008282018381101561161d576040805162461bcd60e51b815260206004820152601b60248201527f536166654d6174683a206164646974696f6e206f766572666c6f770000000000604482015290519081900360640190fd5b60606116d3826040518060400160405280602081526020017f5361666545524332303a206c6f772d6c6576656c2063616c6c206661696c6564815250856001600160a01b031661172f9092919063ffffffff16565b8051909150156115a0578080602001905160208110156116f257600080fd5b50516115a05760405162461bcd60e51b815260040180806020018281038252602a81526020018061199a602a913960400191505060405180910390fd5b606061173e8484600085611746565b949350505050565b606030318311156117885760405162461bcd60e51b81526004018080602001828103825260268152602001806119746026913960400191505060405180910390fd5b611791856118a3565b6117e2576040805162461bcd60e51b815260206004820152601d60248201527f416464726573733a2063616c6c20746f206e6f6e2d636f6e7472616374000000604482015290519081900360640190fd5b60006060866001600160a01b031685876040518082805190602001908083835b602083106118215780518252601f199092019160209182019101611802565b6001836020036101000a03801982511681845116808217855250505050505090500191505060006040518083038185875af1925050503d8060008114611883576040519150601f19603f3d011682016040523d82523d6000602084013e611888565b606091505b50915091506118988282866118a9565b979650505050505050565b3b151590565b606083156118b857508161161d565b8251156118c85782518084602001fd5b8160405162461bcd60e51b81526004018080602001828103825283818151815260200191508051906020019080838360005b838110156119125781810151838201526020016118fa565b50505050905090810190601f16801561193f5780820380516001836020036101000a031916815260200191505b509250505060405180910390fdfe4f776e61626c653a206e6577206f776e657220697320746865207a65726f2061646472657373416464726573733a20696e73756666696369656e742062616c616e636520666f722063616c6c5361666545524332303a204552433230206f7065726174696f6e20646964206e6f742073756363656564a2646970667358221220a52deeb1925ab1da5611ab81978015cfc188f3a2125bd493c708133a9ff4826b64736f6c634300060c0033",
  "immutableReferences": {},
  "source": "// This program is free software: you can redistribute it and/or modify\n// it under the terms of the GNU General Public License as published by\n// the Free Software Foundation, either version 3 of the License, or\n// (at your option) any later version.\n\n// This program is distributed in the hope that it will be useful,\n// but WITHOUT ANY WARRANTY; without even the implied warranty of\n// MERCHANTABILITY or FITNESS FOR A PARTICULAR PURPOSE.  See the\n// GNU General Public License for more details.\n\n// You should have received a copy of the GNU General Public License\n// along with this program.  If not, see <http://www.gnu.org/licenses/>.\n\npragma solidity 0.6.12;\n\n\nimport \"@openzeppelin/contracts/access/Ownable.sol\";\nimport \"@openzeppelin/contracts/math/SafeMath.sol\";\nimport \"@openzeppelin/contracts/token/ERC20/SafeERC20.sol\";\nimport \"@openzeppelin/contracts/utils/ReentrancyGuard.sol\";\n\nimport \"./external/BPool.sol\";\nimport \"./external/interfaces/IPancakeRouter01.sol\";\nimport \"./SharedPoolBuyer.sol\";\n\ncontract SingleAssetBuyer is Ownable, ReentrancyGuard, SharedPoolBuyer, BConst {\n    using SafeMath for uint;\n    using SafeERC20 for IERC20;\n\n    address private _weth;\n    IPancakeRouter01 private _exchanger;\n\n    constructor(address exchanger) public {\n        require(exchanger != address(0));\n\n        _exchanger = IPancakeRouter01(exchanger);\n        _weth = _exchanger.WETH();\n    }\n\n    function chooseUnderlyingToken(address pool, bool isSmartPool)\n        external\n        view\n        returns (address)\n    {\n        address[] memory poolTokens = getTokensFromPool(pool, isSmartPool);\n        address resultToken;\n        uint resultPoolAmountOut;\n\n        for (uint i = 0; i < poolTokens.length; i++) {\n            if (poolTokens[i] == _weth) {\n                continue;\n            }\n\n            address[] memory path = new address[](2);\n            path[0] = _weth;\n            path[1] = poolTokens[i];\n\n            uint[] memory amounts = _exchanger.getAmountsOut(1, path);\n            uint poolAmountOut = calcPoolOutGivenSingleIn(\n                pool, isSmartPool, poolTokens[i], amounts[1]\n            );\n\n            if (resultToken == address(0) || resultPoolAmountOut == 0) {\n                resultToken = poolTokens[i];\n                resultPoolAmountOut = poolAmountOut;\n                continue;\n            }\n\n            if (poolAmountOut > resultPoolAmountOut) {\n                resultToken = poolTokens[i];\n                resultPoolAmountOut = poolAmountOut;\n            }\n        }\n\n        return resultToken;\n    }\n\n    function calcMinPoolAmountOut(\n        address pool,\n        bool isSmartPool,\n        address underlyingToken,\n        uint weiAmountIn\n    )\n        external\n        view\n        returns (uint)\n    {\n        require(underlyingToken != _weth, \"WRONG_UNDERLYING_TOKEN\");\n\n        address[] memory path = new address[](2);\n        path[0] = _weth;\n        path[1] = underlyingToken;\n\n        uint[] memory amounts = _exchanger.getAmountsOut(weiAmountIn, path);\n        uint poolAmountOut = calcPoolOutGivenSingleIn(\n            pool, isSmartPool, underlyingToken, amounts[1]\n        );\n\n        return poolAmountOut;\n    }\n\n    function joinPool(\n        address pool,\n        bool /*isSmartPool*/,\n        address underlyingToken,\n        uint minPoolAmountOut,\n        uint deadline\n    )\n        external\n        payable\n        nonReentrant\n    {\n        require(pool != address(0), \"WRONG_POOL_ADDRESS\");\n        require(msg.value > 0, \"WRONG_MSG_VALUE\");\n        require(underlyingToken != _weth, \"WRONG_UNDERLYING_TOKEN\");\n\n        address[] memory path = new address[](2);\n        path[0] = _weth;\n        path[1] = underlyingToken;\n\n        uint[] memory amounts = _exchanger.swapExactETHForTokens{value: msg.value}(\n            1,\n            path,\n            address(this),\n            deadline\n        );\n\n        IERC20(underlyingToken).safeIncreaseAllowance(pool, amounts[1]);\n        uint poolAmountOut = BPool(pool).joinswapExternAmountIn(\n            underlyingToken, amounts[1], minPoolAmountOut\n        );\n        require(poolAmountOut >= minPoolAmountOut, \"WRONG_POOL_AMOUNT_OUT\");\n        IERC20(pool).safeTransfer(msg.sender, poolAmountOut);\n        msg.sender.transfer(address(this).balance);\n    }\n}\n",
  "sourcePath": "/home/rremizov/projects/multitoken/buyer-contract/contracts/SingleAssetBuyer.sol",
  "compiler": {
    "name": "solc",
    "version": "0.6.12+commit.27d51765.Emscripten.clang"
  },
  "schemaVersion": "3.4.1",
  "updatedAt": "2021-05-25T16:37:01.751Z",
  "devdoc": {
    "kind": "dev",
    "methods": {
      "owner()": {
        "details": "Returns the address of the current owner."
      },
      "renounceOwnership()": {
        "details": "Leaves the contract without owner. It will not be possible to call `onlyOwner` functions anymore. Can only be called by the current owner. NOTE: Renouncing ownership will leave the contract without an owner, thereby removing any functionality that is only available to the owner."
      },
      "transferOwnership(address)": {
        "details": "Transfers ownership of the contract to a new account (`newOwner`). Can only be called by the current owner."
      }
    },
    "version": 1
  },
  "userdoc": {
    "kind": "user",
    "methods": {},
    "version": 1
  }
}