{
  "contractName": "SingleAssetBuyer",
  "abi": [
    {
      "inputs": [
        {
          "internalType": "address",
          "name": "exchanger",
          "type": "address"
        }
      ],
      "stateMutability": "nonpayable",
      "type": "constructor"
    },
    {
      "anonymous": false,
      "inputs": [
        {
          "indexed": true,
          "internalType": "address",
          "name": "previousOwner",
          "type": "address"
        },
        {
          "indexed": true,
          "internalType": "address",
          "name": "newOwner",
          "type": "address"
        }
      ],
      "name": "OwnershipTransferred",
      "type": "event"
    },
    {
      "anonymous": false,
      "inputs": [
        {
          "indexed": false,
          "internalType": "address",
          "name": "sender",
          "type": "address"
        },
        {
          "indexed": false,
          "internalType": "uint256",
          "name": "amount",
          "type": "uint256"
        }
      ],
      "name": "Received",
      "type": "event"
    },
    {
      "inputs": [],
      "name": "BONE",
      "outputs": [
        {
          "internalType": "uint256",
          "name": "",
          "type": "uint256"
        }
      ],
      "stateMutability": "view",
      "type": "function",
      "constant": true
    },
    {
      "inputs": [],
      "name": "BPOW_PRECISION",
      "outputs": [
        {
          "internalType": "uint256",
          "name": "",
          "type": "uint256"
        }
      ],
      "stateMutability": "view",
      "type": "function",
      "constant": true
    },
    {
      "inputs": [],
      "name": "EXIT_FEE",
      "outputs": [
        {
          "internalType": "uint256",
          "name": "",
          "type": "uint256"
        }
      ],
      "stateMutability": "view",
      "type": "function",
      "constant": true
    },
    {
      "inputs": [],
      "name": "INIT_POOL_SUPPLY",
      "outputs": [
        {
          "internalType": "uint256",
          "name": "",
          "type": "uint256"
        }
      ],
      "stateMutability": "view",
      "type": "function",
      "constant": true
    },
    {
      "inputs": [],
      "name": "MAX_BOUND_TOKENS",
      "outputs": [
        {
          "internalType": "uint256",
          "name": "",
          "type": "uint256"
        }
      ],
      "stateMutability": "view",
      "type": "function",
      "constant": true
    },
    {
      "inputs": [],
      "name": "MAX_BPOW_BASE",
      "outputs": [
        {
          "internalType": "uint256",
          "name": "",
          "type": "uint256"
        }
      ],
      "stateMutability": "view",
      "type": "function",
      "constant": true
    },
    {
      "inputs": [],
      "name": "MAX_FEE",
      "outputs": [
        {
          "internalType": "uint256",
          "name": "",
          "type": "uint256"
        }
      ],
      "stateMutability": "view",
      "type": "function",
      "constant": true
    },
    {
      "inputs": [],
      "name": "MAX_IN_RATIO",
      "outputs": [
        {
          "internalType": "uint256",
          "name": "",
          "type": "uint256"
        }
      ],
      "stateMutability": "view",
      "type": "function",
      "constant": true
    },
    {
      "inputs": [],
      "name": "MAX_OUT_RATIO",
      "outputs": [
        {
          "internalType": "uint256",
          "name": "",
          "type": "uint256"
        }
      ],
      "stateMutability": "view",
      "type": "function",
      "constant": true
    },
    {
      "inputs": [],
      "name": "MAX_TOTAL_WEIGHT",
      "outputs": [
        {
          "internalType": "uint256",
          "name": "",
          "type": "uint256"
        }
      ],
      "stateMutability": "view",
      "type": "function",
      "constant": true
    },
    {
      "inputs": [],
      "name": "MAX_WEIGHT",
      "outputs": [
        {
          "internalType": "uint256",
          "name": "",
          "type": "uint256"
        }
      ],
      "stateMutability": "view",
      "type": "function",
      "constant": true
    },
    {
      "inputs": [],
      "name": "MIN_BALANCE",
      "outputs": [
        {
          "internalType": "uint256",
          "name": "",
          "type": "uint256"
        }
      ],
      "stateMutability": "view",
      "type": "function",
      "constant": true
    },
    {
      "inputs": [],
      "name": "MIN_BOUND_TOKENS",
      "outputs": [
        {
          "internalType": "uint256",
          "name": "",
          "type": "uint256"
        }
      ],
      "stateMutability": "view",
      "type": "function",
      "constant": true
    },
    {
      "inputs": [],
      "name": "MIN_BPOW_BASE",
      "outputs": [
        {
          "internalType": "uint256",
          "name": "",
          "type": "uint256"
        }
      ],
      "stateMutability": "view",
      "type": "function",
      "constant": true
    },
    {
      "inputs": [],
      "name": "MIN_FEE",
      "outputs": [
        {
          "internalType": "uint256",
          "name": "",
          "type": "uint256"
        }
      ],
      "stateMutability": "view",
      "type": "function",
      "constant": true
    },
    {
      "inputs": [],
      "name": "MIN_WEIGHT",
      "outputs": [
        {
          "internalType": "uint256",
          "name": "",
          "type": "uint256"
        }
      ],
      "stateMutability": "view",
      "type": "function",
      "constant": true
    },
    {
      "inputs": [
        {
          "internalType": "uint256",
          "name": "tokenBalanceIn",
          "type": "uint256"
        },
        {
          "internalType": "uint256",
          "name": "tokenWeightIn",
          "type": "uint256"
        },
        {
          "internalType": "uint256",
          "name": "tokenBalanceOut",
          "type": "uint256"
        },
        {
          "internalType": "uint256",
          "name": "tokenWeightOut",
          "type": "uint256"
        },
        {
          "internalType": "uint256",
          "name": "tokenAmountOut",
          "type": "uint256"
        },
        {
          "internalType": "uint256",
          "name": "swapFee",
          "type": "uint256"
        }
      ],
      "name": "calcInGivenOut",
      "outputs": [
        {
          "internalType": "uint256",
          "name": "tokenAmountIn",
          "type": "uint256"
        }
      ],
      "stateMutability": "pure",
      "type": "function",
      "constant": true
    },
    {
      "inputs": [
        {
          "internalType": "uint256",
          "name": "tokenBalanceIn",
          "type": "uint256"
        },
        {
          "internalType": "uint256",
          "name": "tokenWeightIn",
          "type": "uint256"
        },
        {
          "internalType": "uint256",
          "name": "tokenBalanceOut",
          "type": "uint256"
        },
        {
          "internalType": "uint256",
          "name": "tokenWeightOut",
          "type": "uint256"
        },
        {
          "internalType": "uint256",
          "name": "tokenAmountIn",
          "type": "uint256"
        },
        {
          "internalType": "uint256",
          "name": "swapFee",
          "type": "uint256"
        }
      ],
      "name": "calcOutGivenIn",
      "outputs": [
        {
          "internalType": "uint256",
          "name": "tokenAmountOut",
          "type": "uint256"
        }
      ],
      "stateMutability": "pure",
      "type": "function",
      "constant": true
    },
    {
      "inputs": [
        {
          "internalType": "uint256",
          "name": "tokenBalanceOut",
          "type": "uint256"
        },
        {
          "internalType": "uint256",
          "name": "tokenWeightOut",
          "type": "uint256"
        },
        {
          "internalType": "uint256",
          "name": "poolSupply",
          "type": "uint256"
        },
        {
          "internalType": "uint256",
          "name": "totalWeight",
          "type": "uint256"
        },
        {
          "internalType": "uint256",
          "name": "tokenAmountOut",
          "type": "uint256"
        },
        {
          "internalType": "uint256",
          "name": "swapFee",
          "type": "uint256"
        }
      ],
      "name": "calcPoolInGivenSingleOut",
      "outputs": [
        {
          "internalType": "uint256",
          "name": "poolAmountIn",
          "type": "uint256"
        }
      ],
      "stateMutability": "pure",
      "type": "function",
      "constant": true
    },
    {
      "inputs": [
        {
          "internalType": "uint256",
          "name": "tokenBalanceIn",
          "type": "uint256"
        },
        {
          "internalType": "uint256",
          "name": "tokenWeightIn",
          "type": "uint256"
        },
        {
          "internalType": "uint256",
          "name": "poolSupply",
          "type": "uint256"
        },
        {
          "internalType": "uint256",
          "name": "totalWeight",
          "type": "uint256"
        },
        {
          "internalType": "uint256",
          "name": "tokenAmountIn",
          "type": "uint256"
        },
        {
          "internalType": "uint256",
          "name": "swapFee",
          "type": "uint256"
        }
      ],
      "name": "calcPoolOutGivenSingleIn",
      "outputs": [
        {
          "internalType": "uint256",
          "name": "poolAmountOut",
          "type": "uint256"
        }
      ],
      "stateMutability": "pure",
      "type": "function",
      "constant": true
    },
    {
      "inputs": [
        {
          "internalType": "uint256",
          "name": "tokenBalanceIn",
          "type": "uint256"
        },
        {
          "internalType": "uint256",
          "name": "tokenWeightIn",
          "type": "uint256"
        },
        {
          "internalType": "uint256",
          "name": "poolSupply",
          "type": "uint256"
        },
        {
          "internalType": "uint256",
          "name": "totalWeight",
          "type": "uint256"
        },
        {
          "internalType": "uint256",
          "name": "poolAmountOut",
          "type": "uint256"
        },
        {
          "internalType": "uint256",
          "name": "swapFee",
          "type": "uint256"
        }
      ],
      "name": "calcSingleInGivenPoolOut",
      "outputs": [
        {
          "internalType": "uint256",
          "name": "tokenAmountIn",
          "type": "uint256"
        }
      ],
      "stateMutability": "pure",
      "type": "function",
      "constant": true
    },
    {
      "inputs": [
        {
          "internalType": "uint256",
          "name": "tokenBalanceOut",
          "type": "uint256"
        },
        {
          "internalType": "uint256",
          "name": "tokenWeightOut",
          "type": "uint256"
        },
        {
          "internalType": "uint256",
          "name": "poolSupply",
          "type": "uint256"
        },
        {
          "internalType": "uint256",
          "name": "totalWeight",
          "type": "uint256"
        },
        {
          "internalType": "uint256",
          "name": "poolAmountIn",
          "type": "uint256"
        },
        {
          "internalType": "uint256",
          "name": "swapFee",
          "type": "uint256"
        }
      ],
      "name": "calcSingleOutGivenPoolIn",
      "outputs": [
        {
          "internalType": "uint256",
          "name": "tokenAmountOut",
          "type": "uint256"
        }
      ],
      "stateMutability": "pure",
      "type": "function",
      "constant": true
    },
    {
      "inputs": [
        {
          "internalType": "uint256",
          "name": "tokenBalanceIn",
          "type": "uint256"
        },
        {
          "internalType": "uint256",
          "name": "tokenWeightIn",
          "type": "uint256"
        },
        {
          "internalType": "uint256",
          "name": "tokenBalanceOut",
          "type": "uint256"
        },
        {
          "internalType": "uint256",
          "name": "tokenWeightOut",
          "type": "uint256"
        },
        {
          "internalType": "uint256",
          "name": "swapFee",
          "type": "uint256"
        }
      ],
      "name": "calcSpotPrice",
      "outputs": [
        {
          "internalType": "uint256",
          "name": "spotPrice",
          "type": "uint256"
        }
      ],
      "stateMutability": "pure",
      "type": "function",
      "constant": true
    },
    {
      "inputs": [],
      "name": "getColor",
      "outputs": [
        {
          "internalType": "bytes32",
          "name": "",
          "type": "bytes32"
        }
      ],
      "stateMutability": "view",
      "type": "function",
      "constant": true
    },
    {
      "inputs": [],
      "name": "owner",
      "outputs": [
        {
          "internalType": "address",
          "name": "",
          "type": "address"
        }
      ],
      "stateMutability": "view",
      "type": "function",
      "constant": true
    },
    {
      "inputs": [],
      "name": "renounceOwnership",
      "outputs": [],
      "stateMutability": "nonpayable",
      "type": "function"
    },
    {
      "inputs": [
        {
          "internalType": "address",
          "name": "newOwner",
          "type": "address"
        }
      ],
      "name": "transferOwnership",
      "outputs": [],
      "stateMutability": "nonpayable",
      "type": "function"
    },
    {
      "stateMutability": "payable",
      "type": "receive",
      "payable": true
    },
    {
      "inputs": [
        {
          "internalType": "address",
          "name": "pool",
          "type": "address"
        },
        {
          "internalType": "bool",
          "name": "isSmartPool",
          "type": "bool"
        }
      ],
      "name": "chooseUnderlyingToken",
      "outputs": [
        {
          "internalType": "address",
          "name": "",
          "type": "address"
        }
      ],
      "stateMutability": "view",
      "type": "function",
      "constant": true
    },
    {
      "inputs": [
        {
          "internalType": "address",
          "name": "pool",
          "type": "address"
        },
        {
          "internalType": "bool",
          "name": "isSmartPool",
          "type": "bool"
        },
        {
          "internalType": "address",
          "name": "underlyingToken",
          "type": "address"
        },
        {
          "internalType": "uint256",
          "name": "weiAmountIn",
          "type": "uint256"
        }
      ],
      "name": "calcMinPoolAmountOut",
      "outputs": [
        {
          "internalType": "uint256",
          "name": "",
          "type": "uint256"
        }
      ],
      "stateMutability": "view",
      "type": "function",
      "constant": true
    },
    {
      "inputs": [
        {
          "internalType": "address",
          "name": "pool",
          "type": "address"
        },
        {
          "internalType": "bool",
          "name": "isSmartPool",
          "type": "bool"
        },
        {
          "internalType": "address",
          "name": "underlyingToken",
          "type": "address"
        },
        {
          "internalType": "uint256",
          "name": "minPoolAmountOut",
          "type": "uint256"
        },
        {
          "internalType": "uint256",
          "name": "deadline",
          "type": "uint256"
        }
      ],
      "name": "joinPool",
      "outputs": [],
      "stateMutability": "payable",
      "type": "function",
      "payable": true
    }
  ],
  "bytecode": "0x60806040523480156200001157600080fd5b5060405162002b2938038062002b29833981810160405260208110156200003757600080fd5b505160006200004562000171565b600080546001600160a01b0319166001600160a01b0383169081178255604051929350917f8be0079c531659141344cd1fd0a4f28419497f9722a3daafe3b4186f6b6457e0908290a350600180556001600160a01b038116620000a757600080fd5b600380546001600160a01b0319166001600160a01b038381169190911791829055604080517fad5c46480000000000000000000000000000000000000000000000000000000081529051929091169163ad5c464891600480820192602092909190829003018186803b1580156200011d57600080fd5b505afa15801562000132573d6000803e3d6000fd5b505050506040513d60208110156200014957600080fd5b5051600280546001600160a01b0319166001600160a01b039092169190911790555062000175565b3390565b6129a480620001856000396000f3fe6080604052600436106101915760003560e01c80639a86139b116100d7578063bc694ea211610085578063bc694ea21461055b578063c36596a61461026a578063c6220cfa14610570578063c6580d12146105b2578063e4a28a52146101d7578063ec093021146105c7578063f2fde38b146105dc578063f8d6aed41461060f576101d2565b80639a86139b14610468578063a221ee491461047d578063b0e0d136146104bf578063b7b800a4146104d4578063ba019dab146104e9578063ba9530a6146104fe578063bc063e1a14610546576101d2565b806376c7a3c71161013f57806376c7a3c71461032757806382f652ad1461033c5780638656b65314610384578063867378c5146103cc57806389298012146103e15780638da5cb5b146104295780639381cd2b1461043e578063992e2a9214610453576101d2565b806309a3bbe4146101d757806314ac26c0146101fe578063189d00ca14610255578063218b53821461026a5780635c1bbaf71461027f578063656a8e94146102c7578063715018a614610310576101d2565b366101d2576040805133815234602082015281517f88a5966d370b9919b20f3e2c13ff65706f196a4e32cc2c12bf57088f88525874929181900390910190a1005b600080fd5b3480156101e357600080fd5b506101ec610657565b60408051918252519081900360200190f35b34801561020a57600080fd5b506102396004803603604081101561022157600080fd5b506001600160a01b0381351690602001351515610664565b604080516001600160a01b039092168252519081900360200190f35b34801561026157600080fd5b506101ec610951565b34801561027657600080fd5b506101ec610965565b34801561028b57600080fd5b506101ec600480360360c08110156102a257600080fd5b5080359060208101359060408101359060608101359060808101359060a00135610971565b3480156102d357600080fd5b506101ec600480360360808110156102ea57600080fd5b506001600160a01b03813581169160208101351515916040820135169060600135610a29565b34801561031c57600080fd5b50610325610cac565b005b34801561033357600080fd5b506101ec610d6a565b34801561034857600080fd5b506101ec600480360360c081101561035f57600080fd5b5080359060208101359060408101359060608101359060808101359060a00135610d7c565b34801561039057600080fd5b506101ec600480360360c08110156103a757600080fd5b5080359060208101359060408101359060608101359060808101359060a00135610e3b565b3480156103d857600080fd5b506101ec610edc565b3480156103ed57600080fd5b506101ec600480360360c081101561040457600080fd5b5080359060208101359060408101359060608101359060808101359060a00135610ef0565b34801561043557600080fd5b50610239610fa0565b34801561044a57600080fd5b506101ec610faf565b34801561045f57600080fd5b506101ec610fbc565b34801561047457600080fd5b506101ec610fc8565b34801561048957600080fd5b506101ec600480360360a08110156104a057600080fd5b5080359060208101359060408101359060608101359060800135610fd5565b3480156104cb57600080fd5b506101ec61102c565b3480156104e057600080fd5b506101ec611032565b3480156104f557600080fd5b506101ec611037565b34801561050a57600080fd5b506101ec600480360360c081101561052157600080fd5b5080359060208101359060408101359060608101359060808101359060a0013561103c565b34801561055257600080fd5b506101ec6110bd565b34801561056757600080fd5b506101ec6110cd565b610325600480360360a081101561058657600080fd5b506001600160a01b038135811691602081013515159160408201351690606081013590608001356110d9565b3480156105be57600080fd5b506101ec611896565b3480156105d357600080fd5b506101ec61189b565b3480156105e857600080fd5b50610325600480360360208110156105ff57600080fd5b50356001600160a01b03166118ab565b34801561061b57600080fd5b506101ec600480360360c081101561063257600080fd5b5080359060208101359060408101359060608101359060808101359060a001356119bf565b6802b5e3af16b188000081565b600060606106728484611a42565b905060008060005b83518110156109445760025484516001600160a01b03909116908590839081106106a057fe5b60200260200101516001600160a01b031614156106bc5761093c565b6040805160028082526060808301845292602083019080368337505060025482519293506001600160a01b0316918391506000906106f657fe5b60200260200101906001600160a01b031690816001600160a01b03168152505084828151811061072257fe5b60200260200101518160018151811061073757fe5b6001600160a01b039283166020918202929092018101919091526003546040805163d06ca61f60e01b815260016004820181815260248301938452875160448401528751606097959095169563d06ca61f95929489949293909260640191858101910280838360005b838110156107b85781810151838201526020016107a0565b50505050905001935050505060006040518083038186803b1580156107dc57600080fd5b505afa1580156107f0573d6000803e3d6000fd5b505050506040513d6000823e601f3d908101601f19168201604052602081101561081957600080fd5b8101908080516040519392919084600160201b82111561083857600080fd5b90830190602082018581111561084d57600080fd5b82518660208202830111600160201b8211171561086957600080fd5b82525081516020918201928201910280838360005b8381101561089657818101518382015260200161087e565b50505050905001604052505050905060006108da8a8a8987815181106108b857fe5b6020026020010151856001815181106108cd57fe5b6020026020010151611b55565b90506001600160a01b03861615806108f0575084155b156109165786848151811061090157fe5b6020026020010151955080945050505061093c565b848111156109385786848151811061092a57fe5b602002602001015195508094505b5050505b60010161067a565b5090925050505b92915050565b6402540be400670de0b6b3a76400005b0481565b670de0b6b3a764000081565b60008061097e8786611e3e565b9050600061098c8786611f51565b9050600061099a8289611e3e565b905060006109b0670de0b6b3a764000085611e3e565b905060006109be8383611fa5565b905060006109cc828e6120b3565b905060006109da828f612175565b905060006109f96109f3670de0b6b3a76400008a612175565b8b6120b3565b9050610a1682610a11670de0b6b3a764000084612175565b611e3e565b9f9e505050505050505050505050505050565b6002546000906001600160a01b0384811691161415610a88576040805162461bcd60e51b81526020600482015260166024820152752ba927a723afaaa72222a9262ca4a723afaa27a5a2a760511b604482015290519081900360640190fd5b6040805160028082526060808301845292602083019080368337505060025482519293506001600160a01b031691839150600090610ac257fe5b60200260200101906001600160a01b031690816001600160a01b0316815250508381600181518110610af057fe5b6001600160a01b039283166020918202929092018101919091526003546040805163d06ca61f60e01b81526004810188815260248201928352865160448301528651606096949094169463d06ca61f948a9489949092606490910191858201910280838360005b83811015610b6f578181015183820152602001610b57565b50505050905001935050505060006040518083038186803b158015610b9357600080fd5b505afa158015610ba7573d6000803e3d6000fd5b505050506040513d6000823e601f3d908101601f191682016040526020811015610bd057600080fd5b8101908080516040519392919084600160201b821115610bef57600080fd5b908301906020820185811115610c0457600080fd5b82518660208202830111600160201b82111715610c2057600080fd5b82525081516020918201928201910280838360005b83811015610c4d578181015183820152602001610c35565b505050509050016040525050509050600081600181518110610c6b57fe5b602002602001015190506000610c828989896121d7565b905081811015610c90578091505b6000610c9e8a8a8a86611b55565b9a9950505050505050505050565b610cb4612202565b6001600160a01b0316610cc5610fa0565b6001600160a01b031614610d20576040805162461bcd60e51b815260206004820181905260248201527f4f776e61626c653a2063616c6c6572206973206e6f7420746865206f776e6572604482015290519081900360640190fd5b600080546040516001600160a01b03909116907f8be0079c531659141344cd1fd0a4f28419497f9722a3daafe3b4186f6b6457e0908390a3600080546001600160a01b0319169055565b620f4240670de0b6b3a7640000610961565b600080610d898786611e3e565b90506000610d9f670de0b6b3a764000083612175565b90506000610dad82866120b3565b90506000610dc787610a11670de0b6b3a764000085612175565b90506000610dd58c83612175565b90506000610de3828e611e3e565b90506000610df18288611fa5565b90506000610dff828e6120b3565b90506000610e0d8e83612175565b9050610e2681610a11670de0b6b3a76400006000612175565b99505050505050505050509695505050505050565b600080610e488786611e3e565b90506000610e67610e61670de0b6b3a764000084612175565b856120b3565b90506000610e8686610e81670de0b6b3a764000085612175565b6120b3565b90506000610e948b83611f51565b90506000610ea2828d611e3e565b90506000610eb08287611fa5565b90506000610ebe828d6120b3565b9050610eca818d612175565b9e9d5050505050505050505050505050565b64e8d4a51000670de0b6b3a7640000610961565b600080610efd8786611e3e565b90506000610f1885610e81670de0b6b3a76400006000612175565b90506000610f268883612175565b90506000610f34828a611e3e565b90506000610f5382610f4e670de0b6b3a764000088611e3e565b611fa5565b90506000610f61828e6120b3565b90506000610f6f8e83612175565b90506000610f886109f3670de0b6b3a76400008a612175565b9050610a1682610e81670de0b6b3a764000084612175565b6000546001600160a01b031690565b68056bc75e2d6310000081565b6704a03ce68d21555681565b6542524f4e5a4560d01b90565b600080610fe28787611e3e565b90506000610ff08686611e3e565b90506000610ffe8383611e3e565b90506000611020670de0b6b3a7640000610a11670de0b6b3a764000089612175565b9050610c9e82826120b3565b61010081565b600281565b600181565b6000806110498786611e3e565b9050600061105f670de0b6b3a764000085612175565b905061106b85826120b3565b9050600061107d8a610a118c85611f51565b9050600061108b8285611fa5565b905060006110a1670de0b6b3a764000083612175565b90506110ad8a826120b3565b9c9b505050505050505050505050565b600a670de0b6b3a7640000610961565b671bc16d674ec7ffff81565b60026001541415611131576040805162461bcd60e51b815260206004820152601f60248201527f5265656e7472616e637947756172643a207265656e7472616e742063616c6c00604482015290519081900360640190fd5b60026001556001600160a01b038516611186576040805162461bcd60e51b815260206004820152601260248201527157524f4e475f504f4f4c5f4144445245535360701b604482015290519081900360640190fd5b600034116111cd576040805162461bcd60e51b815260206004820152600f60248201526e57524f4e475f4d53475f56414c554560881b604482015290519081900360640190fd5b6002546001600160a01b0384811691161415611229576040805162461bcd60e51b81526020600482015260166024820152752ba927a723afaaa72222a9262ca4a723afaa27a5a2a760511b604482015290519081900360640190fd5b6040805160028082526060808301845292602083019080368337505060025482519293506001600160a01b03169183915060009061126357fe5b60200260200101906001600160a01b031690816001600160a01b031681525050838160018151811061129157fe5b60200260200101906001600160a01b031690816001600160a01b03168152505060006112be8787876121d7565b6003546040805163d06ca61f60e01b81523460048201818152602483019384528751604484015287519596506060956001600160a01b039095169463d06ca61f9492938993916064909101906020808601910280838360005b8381101561132f578181015183820152602001611317565b50505050905001935050505060006040518083038186803b15801561135357600080fd5b505afa158015611367573d6000803e3d6000fd5b505050506040513d6000823e601f3d908101601f19168201604052602081101561139057600080fd5b8101908080516040519392919084600160201b8211156113af57600080fd5b9083019060208201858111156113c457600080fd5b82518660208202830111600160201b821117156113e057600080fd5b82525081516020918201928201910280838360005b8381101561140d5781810151838201526020016113f5565b5050505090500160405250505090506060828260018151811061142c57fe5b602002602001015111156115ad5760035460405163fb3bdb4160e01b8152600481018581523060448301819052606483018990526080602484019081528851608485015288516001600160a01b039095169463fb3bdb419434948a948c9490938e9360a401906020808801910280838360005b838110156114b757818101518382015260200161149f565b50505050905001955050505050506000604051808303818588803b1580156114de57600080fd5b505af11580156114f2573d6000803e3d6000fd5b50505050506040513d6000823e601f3d908101601f19168201604052602081101561151c57600080fd5b8101908080516040519392919084600160201b82111561153b57600080fd5b90830190602082018581111561155057600080fd5b82518660208202830111600160201b8211171561156c57600080fd5b82525081516020918201928201910280838360005b83811015611599578181015183820152602001611581565b505050509050016040525050509050611722565b600354604051637ff36ab560e01b81526001600482018181523060448401819052606484018a90526080602485019081528951608486015289516001600160a01b0390961695637ff36ab5953495948c94938e939192909160a4909101906020808801910280838360005b83811015611630578181015183820152602001611618565b50505050905001955050505050506000604051808303818588803b15801561165757600080fd5b505af115801561166b573d6000803e3d6000fd5b50505050506040513d6000823e601f3d908101601f19168201604052602081101561169557600080fd5b8101908080516040519392919084600160201b8211156116b457600080fd5b9083019060208201858111156116c957600080fd5b82518660208202830111600160201b821117156116e557600080fd5b82525081516020918201928201910280838360005b838110156117125781810151838201526020016116fa565b5050505090500160405250505090505b611754898260018151811061173357fe5b6020026020010151896001600160a01b03166122069092919063ffffffff16565b6000896001600160a01b0316635db34277898460018151811061177357fe5b60200260200101518a6040518463ffffffff1660e01b815260040180846001600160a01b031681526020018381526020018281526020019350505050602060405180830381600087803b1580156117c957600080fd5b505af11580156117dd573d6000803e3d6000fd5b505050506040513d60208110156117f357600080fd5b5051905086811015611844576040805162461bcd60e51b815260206004820152601560248201527415d493d391d7d413d3d317d05353d5539517d3d555605a1b604482015290519081900360640190fd5b6118586001600160a01b038b1633836122f7565b6040513390303180156108fc02916000818181858888f19350505050158015611885573d6000803e3d6000fd5b505060018055505050505050505050565b600081565b6002670de0b6b3a7640000610961565b6118b3612202565b6001600160a01b03166118c4610fa0565b6001600160a01b03161461191f576040805162461bcd60e51b815260206004820181905260248201527f4f776e61626c653a2063616c6c6572206973206e6f7420746865206f776e6572604482015290519081900360640190fd5b6001600160a01b0381166119645760405162461bcd60e51b81526004018080602001828103825260268152602001806128f96026913960400191505060405180910390fd5b600080546040516001600160a01b03808516939216917f8be0079c531659141344cd1fd0a4f28419497f9722a3daafe3b4186f6b6457e091a3600080546001600160a01b0319166001600160a01b0392909216919091179055565b6000806119cc8588611e3e565b905060006119da8786612175565b905060006119e88883611e3e565b905060006119f68285611fa5565b9050611a0a81670de0b6b3a7640000612175565b9050611a1e670de0b6b3a764000087612175565b9450611a33611a2d8c836120b3565b86611e3e565b9b9a5050505050505050505050565b6060611a4e838361234e565b6001600160a01b031663cc77828d6040518163ffffffff1660e01b815260040160006040518083038186803b158015611a8657600080fd5b505afa158015611a9a573d6000803e3d6000fd5b505050506040513d6000823e601f3d908101601f191682016040526020811015611ac357600080fd5b8101908080516040519392919084600160201b821115611ae257600080fd5b908301906020820185811115611af757600080fd5b82518660208202830111600160201b82111715611b1357600080fd5b82525081516020918201928201910280838360005b83811015611b40578181015183820152602001611b28565b50505050905001604052505050905092915050565b600080611b62868661234e565b9050806001600160a01b0316638656b653826001600160a01b031663f8b2cb4f876040518263ffffffff1660e01b815260040180826001600160a01b0316815260200191505060206040518083038186803b158015611bc057600080fd5b505afa158015611bd4573d6000803e3d6000fd5b505050506040513d6020811015611bea57600080fd5b505160408051634a46c67360e11b81526001600160a01b03898116600483015291519186169163948d8ce691602480820192602092909190829003018186803b158015611c3657600080fd5b505afa158015611c4a573d6000803e3d6000fd5b505050506040513d6020811015611c6057600080fd5b5051604080516318160ddd60e01b815290516001600160a01b038c16916318160ddd916004808301926020929190829003018186803b158015611ca257600080fd5b505afa158015611cb6573d6000803e3d6000fd5b505050506040513d6020811015611ccc57600080fd5b50516040805163936c347760e01b815290516001600160a01b0388169163936c3477916004808301926020929190829003018186803b158015611d0e57600080fd5b505afa158015611d22573d6000803e3d6000fd5b505050506040513d6020811015611d3857600080fd5b505160408051631a995bed60e31b815290518a916001600160a01b038a169163d4cadf6891600480820192602092909190829003018186803b158015611d7d57600080fd5b505afa158015611d91573d6000803e3d6000fd5b505050506040513d6020811015611da757600080fd5b5051604080516001600160e01b031960e08a901b1681526004810197909752602487019590955260448601939093526064850191909152608484015260a48301525160c4808301926020929190829003018186803b158015611e0857600080fd5b505afa158015611e1c573d6000803e3d6000fd5b505050506040513d6020811015611e3257600080fd5b50519695505050505050565b600081611e81576040805162461bcd60e51b815260206004820152600c60248201526b4552525f4449565f5a45524f60a01b604482015290519081900360640190fd5b670de0b6b3a76400008302831580611ea95750670de0b6b3a7640000848281611ea657fe5b04145b611eed576040805162461bcd60e51b815260206004820152601060248201526f11549497d1125597d25395115493905360821b604482015290519081900360640190fd5b60028304810181811015611f3b576040805162461bcd60e51b815260206004820152601060248201526f11549497d1125597d25395115493905360821b604482015290519081900360640190fd5b6000848281611f4657fe5b049695505050505050565b600082820183811015611f9e576040805162461bcd60e51b815260206004820152601060248201526f4552525f4144445f4f564552464c4f5760801b604482015290519081900360640190fd5b9392505050565b60006001831015611ff5576040805162461bcd60e51b81526020600482015260156024820152744552525f42504f575f424153455f544f4f5f4c4f5760581b604482015290519081900360640190fd5b671bc16d674ec7ffff83111561204b576040805162461bcd60e51b815260206004820152601660248201527508aa4a4be84a09eaebe8482a68abea89e9ebe90928e960531b604482015290519081900360640190fd5b6000612056836123cb565b905060006120648483612175565b9050600061207a86612075856123e6565b6123f4565b90508161208b57925061094b915050565b600061209c87846305f5e10061244b565b90506120a882826120b3565b979650505050505050565b60008282028315806120cd5750828482816120ca57fe5b04145b612111576040805162461bcd60e51b815260206004820152601060248201526f4552525f4d554c5f4f564552464c4f5760801b604482015290519081900360640190fd5b6706f05b59d3b20000810181811015612164576040805162461bcd60e51b815260206004820152601060248201526f4552525f4d554c5f4f564552464c4f5760801b604482015290519081900360640190fd5b6000670de0b6b3a764000082611f46565b60008060006121848585612529565b9150915080156121cf576040805162461bcd60e51b81526020600482015260116024820152704552525f5355425f554e444552464c4f5760781b604482015290519081900360640190fd5b509392505050565b6000806121e585858561254e565b90506121f9816706f05b59d3b200006120b3565b95945050505050565b3390565b600061229c82856001600160a01b031663dd62ed3e30876040518363ffffffff1660e01b815260040180836001600160a01b03168152602001826001600160a01b031681526020019250505060206040518083038186803b15801561226a57600080fd5b505afa15801561227e573d6000803e3d6000fd5b505050506040513d602081101561229457600080fd5b5051906125da565b604080516001600160a01b038616602482015260448082018490528251808303909101815260649091019091526020810180516001600160e01b031663095ea7b360e01b1790529091506122f1908590612634565b50505050565b604080516001600160a01b038416602482015260448082018490528251808303909101815260649091019091526020810180516001600160e01b031663a9059cbb60e01b179052612349908490612634565b505050565b60008082156123c357836001600160a01b031663b64ef17b6040518163ffffffff1660e01b815260040160206040518083038186803b15801561239057600080fd5b505afa1580156123a4573d6000803e3d6000fd5b505050506040513d60208110156123ba57600080fd5b50519050611f9e565b509192915050565b6000670de0b6b3a76400006123df836123e6565b0292915050565b670de0b6b3a7640000900490565b6000806002830661240d57670de0b6b3a764000061240f565b835b90506002830492505b8215611f9e5761242884856120b3565b935060028306156124405761243d81856120b3565b90505b600283049250612418565b600082818061246287670de0b6b3a7640000612529565b9092509050670de0b6b3a764000080600060015b88841061251a576000670de0b6b3a7640000820290506000806124aa8a6124a585670de0b6b3a7640000612175565b612529565b915091506124bc87610e81848c6120b3565b96506124c88784611e3e565b9650866124d75750505061251a565b87156124e1579315935b80156124eb579315935b8415612502576124fb8688612175565b955061250f565b61250c8688611f51565b95505b505050600101612476565b50909998505050505050505050565b60008082841061253f5750508082036000612547565b505081810360015b9250929050565b600061255a848461234e565b6001600160a01b031663f8b2cb4f836040518263ffffffff1660e01b815260040180826001600160a01b0316815260200191505060206040518083038186803b1580156125a657600080fd5b505afa1580156125ba573d6000803e3d6000fd5b505050506040513d60208110156125d057600080fd5b5051949350505050565b600082820183811015611f9e576040805162461bcd60e51b815260206004820152601b60248201527f536166654d6174683a206164646974696f6e206f766572666c6f770000000000604482015290519081900360640190fd5b6060612689826040518060400160405280602081526020017f5361666545524332303a206c6f772d6c6576656c2063616c6c206661696c6564815250856001600160a01b03166126e59092919063ffffffff16565b805190915015612349578080602001905160208110156126a857600080fd5b50516123495760405162461bcd60e51b815260040180806020018281038252602a815260200180612945602a913960400191505060405180910390fd5b60606126f484846000856126fc565b949350505050565b6060303183111561273e5760405162461bcd60e51b815260040180806020018281038252602681526020018061291f6026913960400191505060405180910390fd5b6127478561284e565b612798576040805162461bcd60e51b815260206004820152601d60248201527f416464726573733a2063616c6c20746f206e6f6e2d636f6e7472616374000000604482015290519081900360640190fd5b60006060866001600160a01b031685876040518082805190602001908083835b602083106127d75780518252601f1990920191602091820191016127b8565b6001836020036101000a03801982511681845116808217855250505050505090500191505060006040518083038185875af1925050503d8060008114612839576040519150601f19603f3d011682016040523d82523d6000602084013e61283e565b606091505b50915091506120a8828286612854565b3b151590565b60608315612863575081611f9e565b8251156128735782518084602001fd5b8160405162461bcd60e51b81526004018080602001828103825283818151815260200191508051906020019080838360005b838110156128bd5781810151838201526020016128a5565b50505050905090810190601f1680156128ea5780820380516001836020036101000a031916815260200191505b509250505060405180910390fdfe4f776e61626c653a206e6577206f776e657220697320746865207a65726f2061646472657373416464726573733a20696e73756666696369656e742062616c616e636520666f722063616c6c5361666545524332303a204552433230206f7065726174696f6e20646964206e6f742073756363656564a2646970667358221220d00df3999ef82df5427f8caecfb39354e5f70c8b30554152c5370ff730c7726a64736f6c634300060c0033",
  "immutableReferences": {},
  "source": "// This program is free software: you can redistribute it and/or modify\n// it under the terms of the GNU General Public License as published by\n// the Free Software Foundation, either version 3 of the License, or\n// (at your option) any later version.\n\n// This program is distributed in the hope that it will be useful,\n// but WITHOUT ANY WARRANTY; without even the implied warranty of\n// MERCHANTABILITY or FITNESS FOR A PARTICULAR PURPOSE.  See the\n// GNU General Public License for more details.\n\n// You should have received a copy of the GNU General Public License\n// along with this program.  If not, see <http://www.gnu.org/licenses/>.\n\npragma solidity 0.6.12;\n\n\nimport \"@openzeppelin/contracts/access/Ownable.sol\";\nimport \"@openzeppelin/contracts/math/SafeMath.sol\";\nimport \"@openzeppelin/contracts/token/ERC20/SafeERC20.sol\";\nimport \"@openzeppelin/contracts/utils/ReentrancyGuard.sol\";\n\nimport \"./SharedPoolBuyer.sol\";\nimport \"./external/BMath.sol\";\nimport \"./external/BPool.sol\";\nimport \"./external/interfaces/IPancakeRouter01.sol\";\n\ncontract SingleAssetBuyer is Ownable, ReentrancyGuard, SharedPoolBuyer, BConst, BMath {\n    using SafeMath for uint;\n    using SafeERC20 for IERC20;\n\n    address private _weth;\n    IPancakeRouter01 private _exchanger;\n\n    event Received(address sender, uint amount);\n\n    constructor(address exchanger) public {\n        require(exchanger != address(0));\n\n        _exchanger = IPancakeRouter01(exchanger);\n        _weth = _exchanger.WETH();\n    }\n\n    receive() external payable {\n        emit Received(msg.sender, msg.value);\n    }\n\n    function chooseUnderlyingToken(address pool, bool isSmartPool)\n        external\n        view\n        returns (address)\n    {\n        address[] memory poolTokens = getTokensFromPool(pool, isSmartPool);\n        address resultToken;\n        uint resultPoolAmountOut;\n\n        for (uint i = 0; i < poolTokens.length; i++) {\n            if (poolTokens[i] == _weth) {\n                continue;\n            }\n\n            address[] memory path = new address[](2);\n            path[0] = _weth;\n            path[1] = poolTokens[i];\n\n            uint[] memory amounts = _exchanger.getAmountsOut(1, path);\n            uint poolAmountOut = calcPoolOutGivenSingleIn(\n                pool, isSmartPool, poolTokens[i], amounts[1]\n            );\n\n            if (resultToken == address(0) || resultPoolAmountOut == 0) {\n                resultToken = poolTokens[i];\n                resultPoolAmountOut = poolAmountOut;\n                continue;\n            }\n\n            if (poolAmountOut > resultPoolAmountOut) {\n                resultToken = poolTokens[i];\n                resultPoolAmountOut = poolAmountOut;\n            }\n        }\n\n        return resultToken;\n    }\n\n    function calcMinPoolAmountOut(\n        address pool,\n        bool isSmartPool,\n        address underlyingToken,\n        uint weiAmountIn\n    )\n        external\n        view\n        returns (uint)\n    {\n        require(underlyingToken != _weth, \"WRONG_UNDERLYING_TOKEN\");\n\n        address[] memory path = new address[](2);\n        path[0] = _weth;\n        path[1] = underlyingToken;\n\n        uint[] memory amounts = _exchanger.getAmountsOut(weiAmountIn, path);\n        uint tokenIn = amounts[1];\n        uint maxTokenIn = _calcMaxTokenIn(pool, isSmartPool, underlyingToken);\n\n        if (maxTokenIn < tokenIn) {\n            tokenIn = maxTokenIn;\n        }\n\n        uint poolAmountOut = calcPoolOutGivenSingleIn(\n            pool, isSmartPool, underlyingToken, tokenIn\n        );\n\n        return poolAmountOut;\n    }\n\n    function joinPool(\n        address pool,\n        bool isSmartPool,\n        address underlyingToken,\n        uint minPoolAmountOut,\n        uint deadline\n    )\n        external\n        payable\n        nonReentrant\n    {\n        require(pool != address(0), \"WRONG_POOL_ADDRESS\");\n        require(msg.value > 0, \"WRONG_MSG_VALUE\");\n        require(underlyingToken != _weth, \"WRONG_UNDERLYING_TOKEN\");\n\n        address[] memory path = new address[](2);\n        path[0] = _weth;\n        path[1] = underlyingToken;\n\n        uint maxTokenIn = _calcMaxTokenIn(pool, isSmartPool, underlyingToken);\n        uint[] memory swapAmountsOut = _exchanger.getAmountsOut(msg.value, path);\n        uint[] memory amounts;\n\n        if (swapAmountsOut[1] > maxTokenIn) {\n            amounts = _exchanger.swapETHForExactTokens{value: msg.value}(\n                maxTokenIn,\n                path,\n                address(this),\n                deadline\n            );\n        } else {\n            amounts = _exchanger.swapExactETHForTokens{value: msg.value}(\n                1,\n                path,\n                address(this),\n                deadline\n            );\n        }\n\n        IERC20(underlyingToken).safeIncreaseAllowance(pool, amounts[1]);\n        uint poolAmountOut = BPool(pool).joinswapExternAmountIn(\n            underlyingToken, amounts[1], minPoolAmountOut\n        );\n        require(poolAmountOut >= minPoolAmountOut, \"WRONG_POOL_AMOUNT_OUT\");\n        IERC20(pool).safeTransfer(msg.sender, poolAmountOut);\n        msg.sender.transfer(address(this).balance);\n    }\n\n    function _calcMaxTokenIn(\n        address pool,\n        bool isSmartPool,\n        address underlyingToken\n    )\n        internal\n        view\n        returns (uint)\n    {\n        uint balance = getBalanceFromPool(pool, isSmartPool, underlyingToken);\n        return bmul(balance, MAX_IN_RATIO);\n    }\n}\n",
  "sourcePath": "/home/rremizov/projects/multitoken/buyer-contract/contracts/SingleAssetBuyer.sol",
  "compiler": {
    "name": "solc",
    "version": "0.6.12+commit.27d51765.Emscripten.clang"
  },
  "schemaVersion": "3.4.1",
  "updatedAt": "2021-06-01T08:24:26.259Z",
  "networkType": "ethereum",
  "devdoc": {
    "kind": "dev",
    "methods": {
      "owner()": {
        "details": "Returns the address of the current owner."
      },
      "renounceOwnership()": {
        "details": "Leaves the contract without owner. It will not be possible to call `onlyOwner` functions anymore. Can only be called by the current owner. NOTE: Renouncing ownership will leave the contract without an owner, thereby removing any functionality that is only available to the owner."
      },
      "transferOwnership(address)": {
        "details": "Transfers ownership of the contract to a new account (`newOwner`). Can only be called by the current owner."
      }
    },
    "version": 1
  },
  "userdoc": {
    "kind": "user",
    "methods": {},
    "version": 1
  }
}